:020000040800F2
:10000000B01C002089820008BD800008BF80000865
:1000100000000000000000000000000000000000E0
:10002000000000000000000000000000C180000887
:10003000C380000800000000C5800008C7800008D9
:100040001346000827580008B35C00083B5D000811
:100050009B7E0008098100081F81000813810008A9
:100060006782000873820008A5820008A782000842
:10007000A9820008AB82000800000000AD820008E1
:1000800000000000AF820008000000000000000037
:10009000B182000800000000B3820008B5820008A9
:1000A000B7820008B9820008BB820008BD82000840
:1000B000BF820008C1820008C3820008F3800008E4
:1000C000FFFFFFFFFFFFFFFFFFFFFFFFFFFFFFFF40
:1000D000FFFFFFFFFFFFFFFFFFFFFFFFFFFFFFFF30
:1000E000FFFFFFFFFFFFFFFFFFFFFFFFFFFFFFFF20
:1000F000FFFFFFFFFFFFFFFFFFFFFFFFFFCC00033E
:10010000FFCC0003FFFFFFFFFFFFFFFFFFFFFFFF2D
:10011000FFFFFFFFFFFFFFFFFFFFFFFFFFFFFFFFEF
:10012000FFFFFFFFFFFFFF0FFFFFC00FFFFFFF0FEE
:10013000FFFFFFFFFFFFFF0FFFFFC00FFFFFFF0FDE
:10014000FFFFFFFFFFFFFFFFFFFFFFFFFFFF33FF8B
:10015000FF0003FFFF000003FFFF3003FF0003FF6A
:10016000FF000003FFFF3003FFFF33FFFFFFFFFF30
:10017000FFFFFFFFFFFFFFFFFFC0FC0FFFC0F0030B
:10018000FFCFC0F3FC0FC3F0FFCF03F3FFC00F039B
:10019000FFF03F03FFFFFFFFFFFFFFFFFFFFFFFF3A
:1001A000FFFFFFFFFFFF3F0FFFFF0CF3FFFFCCF34D
:1001B000FFFFC30FFFF0C3FFFFCF33FFFFCF30FFC1
:1001C000FFF0FCFFFFFFFFFFFFFFFFFFFFFFFFFF51
:1001D000FFF0FFFFFFC0303FFFCF000FFFCC0FCF7E
:1001E000FFF0FFCFFFC03FCFFFCF3FCFFFFFFFFFAD
:1001F000FFFFFFFFFFFFFFFFFFFFFFFFFFFFFFFF0F
:10020000FFFFFFFFFFFFFFFFFFFFFF0FFFFFC00F1D
:10021000FFFFFF0FFFFFFFFFFFFFFFFFFFFFFFFFDE
:10022000FFFFFFFFFFFFFFFFFFFFFFFFFFFFFFFFDE
:10023000FFF000FFFFC0003FFC03FC03FC3FFFC3D7
:10024000FFFFFFFFFFFFFFFFFFFFFFFFFFFFFFFFBE
:10025000FFFFFFFFFFFFFFFFFC3FFFC3FC03FC03AB
:10026000FFC0003FFFF000FFFFFFFFFFFFFFFFFFAA
:10027000FFFFFFFFFFFFFFFFFFFFFFFFFFFFFFFF8E
:10028000FFFFFC3FFFFF0C3FFFFF003FFFFFF003BE
:10029000FFFFF003FFFF003FFFFF0C3FFFFFFC3FAE
:1002A000FFFFFFFFFFFFFFFFFFFFFFFFFFFFCFFF8E
:1002B000FFFFCFFFFFFFCFFFFFF0003FFFFFCFFFAC
:1002C000FFFFCFFFFFFFCFFFFFFFFFFFFFFFFFFF9E
:1002D000FFFFFFFFFFFFFFFFFFFFFFFFFFFFFFFF2E
:1002E000F03FFFFFFF03FFFFFFF3FFFFFFFFFFFFF5
:1002F000FFFFFFFFFFFFFFFFFFFFFFFFFFFFFFFF0E
:10030000FFFFFFFFFFFFCFFFFFFFCFFFFFFFCFFF8D
:10031000FFFFCFFFFFFFCFFFFFFFCFFFFFFFCFFFAD
:10032000FFFFFFFFFFFFFFFFFFFFFFFFFFFFFFFFDD
:10033000FFFFFFFFFFFFFFFFFFC3FFFFFFC3FFFF45
:10034000FFFFFFFFFFFFFFFFFFFFFFFFFFFFFFFFBD
:10035000FFFFFFFFFFFFFFFFFFFFFFFFFC3FFFFF70
:10036000FC03FFFFFFC03FFFFFFC0FFFFFFFC0FFCD
:10037000FFFFF00FFFFFFF00FFFFFFF0FFFFFFFF9A
:10038000FFFFFFFFFFFFFFFFFFFC003FFFF0000F3D
:10039000FFC3FFC3FFCFFFF3FFC3FFC3FFF0000F97
:1003A000FFFC003FFFFFFFFFFFFFFFFFFFFFFFFF1F
:1003B000FFFFFFFFFFCFFFCFFFCFFFCFFFCFFFCF6D
:1003C000FFC00003FFC00003FFCFFFFFFFCFFFFF11
:1003D000FFCFFFFFFFFFFFFFFFFFFFFFFFFFFFFF5D
:1003E000FFC3FC3FFFC0FC0FFFCC3FC3FFCF0FF3A9
:1003F000FFCFC3F3FFCFF003FFCFFC0FFFFFFFFFE3
:10040000FFFFFFFFFFFFFFFFFFF3FFCFFFC3FFC3B0
:10041000FFCFF3F3FFCFF3F3FFCFF3F3FFCFC0F33F
:10042000FFC00003FFF00F0FFFFFFFFFFFFFFFFF05
:10043000FFFFFFFFFFFFFFFFFFFC3FFFFFFC03FF8E
:10044000FFCCF03FFFCCFF03FFC00003FFC0000361
:10045000FFCCFFFFFFFFFFFFFFFFFFFFFFFFFFFFDF
:10046000FFFFFFFFFFF3FFFFFFCFC003FFCFF0034E
:10047000FFCFF3F3FFCFF3F3FFC003F3FFF00FF36E
:10048000FFFFFFFFFFFFFFFFFFFFFFFFFFFFFFFF7C
:10049000FFFC00FFFFF0003FFFC3CF0FFFCFF3C310
:1004A000FFCFF3F3FFC003F3FFF00FF3FFFFFFFFF6
:1004B000FFFFFFFFFFFFFFFFFFFFFFFFFFFFFFC388
:1004C000FFFFFFF3FFFFFFF3FFC0FFF3FFC000F3E9
:1004D000FFFF0003FFFFFF03FFFFFFFFFFFFFFFF23
:1004E000FFFFFFFFFFFFFFFFFFF00C0FFFC0000348
:1004F000FFCFF3F3FFCFF3F3FFCFF3F3FFC000031E
:10050000FFF00C0FFFFFFFFFFFFFFFFFFFFFFFFFED
:10051000FFFFFFFFFFCFF00FFFCFC003FFCFCFF3F1
:10052000FFC3CFF3FFF0F3C3FFF0000FFFFF003F67
:10053000FFFFFFFFFFFFFFFFFFFFFFFFFFFFFFFFCB
:10054000FFFFFFFFFFFFFFFFFFC3F0FFFFC3F0FF51
:10055000FFFFFFFFFFFFFFFFFFFFFFFFFFFFFFFFAB
:10056000FFFFFFFFFFFFFFFFFFFFFFFFFFFFFFFF9B
:10057000FFFFFFFFFC3FFFFFFFC3FFFFFFF3F0FFA5
:10058000FFFFF0FFFFFFFFFFFFFFFFFFFFFFFFFF8A
:10059000FFFFFFFFFFFFCFFFFFFFCFFFFFFF33FF97
:1005A000FFFF33FFFFFCFCFFFFF3FF3FFFF3FF3FC5
:1005B000FFCFFFCFFFCFFFCFFFFFFFFFFFFFFFFF0B
:1005C000FFFFFFFFFFFF33FFFFFF33FFFFFF33FF9F
:1005D000FFFF33FFFFFF33FFFFFF33FFFFFF33FF5B
:1005E000FFFFFFFFFFFFFFFFFFFFFFFFFFCFFFCF7B
:1005F000FFCFFFCFFFF3FF3FFFF3FF3FFFFCFCFF09
:10060000FFFF33FFFFFF33FFFFFFCFFFFFFFCFFFF2
:10061000FFFFFFFFFFFFFFFFFFFFFFFFFFFFFC3FAD
:10062000FFFFFC0FFFCC3FCFFFCC0FCFFFFFCFCFA3
:10063000FFFFC00FFFFFF03FFFFFFFFFFFFFFFFFC8
:10064000FFFFFFFFFFFFFFFFFFF0003FFFCFFFCFE8
:10065000FF3F0FF3FF3CF3F3FF3CF3F3FFCC000F3E
:10066000FFFFFFFFFFFFFFFFFFFFFFFFFFFFFFFF9A
:10067000FFCFFFFFFFC0FFCFFFC003CFFFCF000FB3
:10068000FFFF3F0FFFFF3F0FFFCF000FFFC003FF34
:10069000FFC0FFFFFFCFFFFFFFFFFFFFFFCFFFCF39
:1006A000FFC0000FFFC0000FFFCFCFCFFFCFCFCFD6
:1006B000FFCFCFCFFFC0000FFFF0303FFFFFFFFFA6
:1006C000FFFFFFFFFFFFFFFFFFFC00FFFFF0003F0A
:1006D000FFC3FF0FFFCFFFCFFFCFFFCFFFCFFFCF76
:1006E000FFCFFFCFFFF3FF3FFFFCFC0FFFFFFFFF3C
:1006F000FFFFFFFFFFCFFFCFFFC0000FFFC0000FC6
:10070000FFCFFFCFFFCFFFCFFFCFFFCFFFC3FF0F45
:10071000FFF0003FFFFC00FFFFFFFFFFFFFFFFFFB9
:10072000FFCFFFCFFFC0000FFFC0000FFFCFCFCF25
:10073000FFCFCFCFFFCF03CFFFCFFFCFFFC0FC0F47
:10074000FFFFFFFFFFFFFFFFFFFFFFFFFFCFFFCF19
:10075000FFC0000FFFC0000FFFCFCFCFFFCFCFCF25
:10076000FFFF03CFFFFFFFCFFFFFFC0FFFFFFFFFE8
:10077000FFFFFFFFFFFFFFFFFFFC00FFFFF0003F59
:10078000FFC3FF0FFFCFFFCFFFCF3FCFFFCF3FCF45
:10079000FFC03F3FFFC03C0FFFFF3FFFFFFFFFFFDA
:1007A000FFFFFFFFFFCFFFCFFFC0000FFFC0000F15
:1007B000FFCFCFCFFFFFCFFFFFCFCFCFFFC0000FC7
:1007C000FFC0000FFFCFFFCFFFFFFFFFFFFFFFFFC7
:1007D000FFFFFFFFFFCFFFCFFFCFFFCFFFCFFFCF49
:1007E000FFC0000FFFC0000FFFCFFFCFFFCFFFCF35
:1007F000FFCFFFCFFFFFFFFFFFFFFFFFFFF03FFF38
:10080000FFC03FFFFFCFFFCFFFCFFFCFFFCFFFCF17
:10081000FFC0000FFFF0000FFFFFFFCFFFFFFFCF74
:10082000FFFFFFFFFFFFFFFFFFCFFFCFFFC0000F66
:10083000FFC0000FFFCF0FCFFFFF03FFFFFC30CF44
:10084000FFC0FC0FFFC3FF0FFFCFFFCFFFFFFFFF76
:10085000FFFFFFFFFFCFFFCFFFCFFFCFFFC0000F96
:10086000FFC0000FFFCFFFCFFFCFFFCFFFCFFFFFB6
:10087000FFCFFFFFFFC03FFFFFFFFFFFFFCFFFCF17
:10088000FFC0000FFFC0000FFFCFF0FFFFCF03FF3F
:10089000FFFC3FFFFFCF03FFFFCFF0FFFFC0000FC4
:1008A000FFC0000FFFCFFFCFFFFFFFFFFFCFFFCF46
:1008B000FFC0000FFFC0000FFFCFF0FFFFFF03FFDF
:1008C000FFFC3FCFFFC0000FFFC0000FFFFFFFCFB7
:1008D000FFFFFFFFFFFFFFFFFFFC00FFFFF0003FF8
:1008E000FFC3FF0FFFCFFFCFFFCFFFCFFFCFFFCF64
:1008F000FFC3FF0FFFF0003FFFFC00FFFFFFFFFF04
:10090000FFFFFFFFFFCFFFCFFFC0000FFFC0000FB3
:10091000FFCF3FCFFFCF3FCFFFCF3FCFFFFF000F36
:10092000FFFFC03FFFFFFFFFFFFFFFFFFFFFFFFFD6
:10093000FFFC00FFFFF0003FFCC3FF0FFC0FFFCFE9
:10094000FC0FFFCFFCCFFFCFFCC3FF0FFC30003FFD
:10095000FF3C00FFFFFFFFFFFFFFFFFFFFCFFFCFC9
:10096000FFC0000FFFC0000FFFCFCFCFFFCFCFCF13
:10097000FFFF0FCFFFF0300FFFC0F03FFFCFFFFFB3
:10098000FFCFFFFFFFFFFFFFFFFFFFFFFFC0F03FB5
:10099000FFC0C00FFFCFC3CFFFCFCFCFFFCF0FCF51
:1009A000FFC00C0FFFF03C0FFFFFFFFFFFFFFFFF3B
:1009B000FFFFFFFFFFFFF00FFFCFFFCFFFCFFFCF06
:1009C000FFC0000FFFC0000FFFCFFFCFFFCFFFCF53
:1009D000FFFFF00FFFFFFFFFFFFFFFFFFFFFFFFF26
:1009E000FFFFFFCFFFF0000FFFF0000FFFCFFFCFA3
:1009F000FFCFFFFFFFCFFFCFFFF0000FFFF0000F93
:100A0000FFFFFFCFFFFFFFFFFFFFFFFFFFFFFFCF56
:100A1000FFFFFC0FFFFF000FFFC003CFFFC3FFFF6F
:100A2000FFC003CFFFFF000FFFFFFC0FFFFFFFCF53
:100A3000FFFFFFFFFFFFFFCFFFFFC00FFFC0000F53
:100A4000FFC0FFCFFFF003CFFFFFC0FFFFF003CFDA
:100A5000FFC0FFCFFFC0000FFFFFC00FFFFFFFCFA2
:100A6000FFFFFFFFFFCFFFCFFFC3FF0FFFC0FC0F54
:100A7000FFCC00CFFFFF03FFFFCC00CFFFC0FC0F78
:100A8000FFC3FF0FFFCFFFCFFFFFFFFFFFFFFFFF02
:100A9000FFFFFFCFFFFFFF0FFFCFFC0FFFCFF0CF18
:100AA000FFC003FFFFC003FFFFCFF0CFFFCFFC0F5E
:100AB000FFFFFF0FFFFFFFCFFFFFFFFFFFFFFFFF66
:100AC000FFC3FC0FFFC0FFCFFFCC3FCFFFCF03CF53
:100AD000FFCFF0CFFFCFFC0FFFC0FF0FFFFFFFFFE7
:100AE000FFFFFFFFFFFFFFFFFFFFFFFFFFFFFFFF16
:100AF000FFFFFFFFFFFFFFFFFC000003FC00000300
:100B0000FCFFFFF3FCFFFFF3FFFFFFFFFFFFFFFF13
:100B1000FFFFFFFFFFFFFFFFFFFFFFF0FFFFFF00F3
:100B2000FFFFF00FFFFFC0FFFFFC0FFFFFC03FFF05
:100B3000FC03FFFFFC3FFFFFFFFFFFFFFFFFFFFF87
:100B4000FFFFFFFFFFFFFFFFFCFFFFF3FCFFFFF3D3
:100B5000FC000003FC000003FFFFFFFFFFFFFFFF9F
:100B6000FFFFFFFFFFFFFFFFFFFFFFFFFFFFFFFF95
:100B7000FFFFF0FFFFFFFF3FFFFFFFC3FFFFFFFC93
:100B8000FFFFFFC3FFFFFF3FFFFFF0FFFFFFFFFF80
:100B9000FFFFFFFF3FFFFFFF3FFFFFFF3FFFFFFFA5
:100BA0003FFFFFFF3FFFFFFF3FFFFFFF3FFFFFFF55
:100BB0003FFFFFFF3FFFFFFF3FFFFFFF3FFFFFFF45
:100BC000FFFFFFFFFFFFFFFFFFFFFFFFFFFFFFFF35
:100BD000FFFFFFFCFFFFFFF3FFFFFFCFFFFFFFFF64
:100BE000FFFFFFFFFFFFFFFFFFFFFFFFFFFFFFFF15
:100BF000FFFFFFFFFFF0FFFFFFC03CFFFFCF3CFF09
:100C0000FFCF3CFFFFF33CFFFFC000FFFFC003FF2F
:100C1000FFCFFFFFFFFFFFFFFFFFFFFFFFCFFFF350
:100C2000FFC00003FFC00003FFF3F3FFFFCFFCFF93
:100C3000FFCFFCFFFFC3F0FFFFF003FFFFFC0FFF40
:100C4000FFFFFFFFFFFFFFFFFFFC0FFFFFF003FFB2
:100C5000FFC3F0FFFFCFFCFFFFCFFCFFFFCFFCFF88
:100C6000FFC3F3FFFFF0C0FFFFFFFFFFFFFFFFFF2A
:100C7000FFFFFFFFFFFC0FFFFFF003FFFFC3F0FFCD
:100C8000FFCFFCFFFFCFFCFFFFF3F3F3FFC0000338
:100C9000FFC00003FFCFFFFFFFFFFFFFFFFFFFFFCE
:100CA000FFFC0FFFFFF003FFFFC330FFFFCF3CFF50
:100CB000FFCF3CFFFFCF30FFFFC303FFFFF30FFF6A
:100CC000FFFFFFFFFFFFFFFFFFFFFFFFFFFFFFFF34
:100CD000FFCFFCFFFFCFFCFFFFC0000FFFC00003F2
:100CE000FFCFFCF3FFCFFCF3FFCFFCF3FFFFFFF3DD
:100CF000FFFFFFF3FFFFFFFFFFFC0FFFFFF003FF0E
:100D0000F3C3F0FFF3CFFCFFF3CFFCFFF3F3F3FFEC
:100D1000F00000FFFC0000FFFFFFFCFFFFFFFFFFF4
:100D2000FFFFFFFFFFCFFFF3FFC00003FFC0000383
:100D3000FFCFF3FFFFFFFCFFFFCFFCFFFFC000FF73
:100D4000FFC003FFFFCFFFFFFFFFFFFFFFFFFFFF1E
:100D5000FFFFFFFFFFCFFFFFFFCFFCFFFFCFFCFF39
:100D6000FFC000C3FFC000C3FFCFFFFFFFCFFFFFE7
:100D7000FFCFFFFFFFFFFFFFFFFFFFFFFFFFFFFFB3
:100D8000F3FFFCFFF3FFFCFFF3FFFCFFF3FFFCC3EB
:100D9000F00000C3FC0000FFFFFFFFFFFFFFFFFFAD
:100DA000FFFFFFFFFFFFFFFFFFCFFFF3FFC00003C9
:100DB000FFC00003FFFF0FFFFFCC00FFFFC0F0FFED
:100DC000FFC3FCFFFFCFFCFFFFCFFFFFFFFFFFFFD5
:100DD000FFFFFFFFFFCFFFFFFFCFFFF3FFCFFFF3CB
:100DE000FFC00003FFC00003FFCFFFFFFFCFFFFFE7
:100DF000FFCFFFFFFFFFFFFFFFFFFFFFFFFFFFFF33
:100E0000FFCFFCFFFFC000FFFFC000FFFFFFFCFFA4
:100E1000FFC000FFFFC000FFFFFFFCFFFFC000FF9F
:100E2000FFC003FFFFCFFFFFFFFFFFFFFFCFFCFF70
:100E3000FFC000FFFFC000FFFFCFF3FFFFFFFCFF7D
:100E4000FFCFFCFFFFC000FFFFC003FFFFCFFFFF8E
:100E5000FFFFFFFFFFFFFFFFFFFC0FFFFFF003FFA0
:100E6000FFC3F0FFFFCFFCFFFFCFFCFFFFCFFCFF76
:100E7000FFC3F0FFFFF003FFFFFC0FFFFFFFFFFFCB
:100E8000FFFFFFFFF3FFFCFFF00000FFF00000FF9B
:100E9000F3F3F3FFF3CFFCFFFFCFFCFFFFC3F0FF43
:100EA000FFF003FFFFFC0FFFFFFFFFFFFFFFFFFF50
:100EB000FFFC0FFFFFF003FFFFC3F0FFFFCFFCFFBE
:100EC000F3CFFCFFF3F3F3FFF00000FFF00000FFAF
:100ED000F3FFFCFFFFFFFFFFFFFFFFFFFFCFFCFF64
:100EE000FFCFFCFFFFC000FFFFC000FFFFCFF3FFFD
:100EF000FFCFFCFFFFCFFCFFFFFFF0FFFFFFF3FF83
:100F0000FFFFFFFFFFFFFFFFFFC3C3FFFFC300FFA4
:100F1000FFCF0CFFFFCF0CFFFFCC3CFFFFC030FF2B
:100F2000FFF0F0FFFFFFFFFFFFFFFFFFFFFFFFFFEF
:100F3000FFFFFFFFFFFFFCFFFFFFFCFFFFF00003D1
:100F4000FFC00003FFCFFCFFFFCFFCFFFFCFFCFF84
:100F5000FFF3FFFFFFFFFFFFFFFFFFFFFFFFFFFFAD
:100F6000FFFFFCFFFFF000FFFFC000FFFFCFFFFF10
:100F7000FFCFFFFFFFF3FCFFFFC000FFFFC000FF3C
:100F8000FFCFFFFFFFFFFFFFFFFFFFFFFFFFFCFFA4
:100F9000FFFFC0FFFFFC00FFFFC03CFFFFC3FFFFE0
:100FA000FFC03CFFFFFC00FFFFFFC0FFFFFFFCFF97
:100FB000FFFFFFFFFFFFFCFFFFFF00FFFFC000FF81
:100FC000FFC0FCFFFFF03FFFFFFF0FFFFFF03FFF01
:100FD000FFC0FCFFFFC000FFFFFF00FFFFFFFCFFA3
:100FE000FFFFFFFFFFCFFCFFFFCFFCFFFFC3F0FFC2
:100FF000FFC000FFFFFC0FFFFFC000FFFFC3F0FFBB
:10100000FFCFFCFFFFCFFCFFFFFFFFFFFFFFFFFF56
:10101000FFFFFCFFF3FFF0FFF3FF00FFF0F00CFF1A
:10102000F003FFFFF300FFFFFFF00CFFFFFF00FFE7
:10103000FFFFF0FFFFFFFCFFFFFFFFFFFFFFFFFFD2
:10104000FFC3F0FFFFC0FCFFFFCC3CFFFFCF3CFF26
:10105000FFCF0CFFFFCFC0FFFFC3F0FFFFFFFFFF7D
:10106000FFFFFFFFFFFFFFFFFFFFFFFFFFFFFFFF90
:10107000FFFF3FFFFF00000FFC00C003FCFFFFF37A
:10108000FFFFFFFFFFFFFFFFFFFFFFFFFFFFFFFF70
:10109000FFFFFFFFFFFFFFFFFFFFFFFFFFFFFFFF60
:1010A000FFFFFFFFFC000003FC000003FFFFFFFF4A
:1010B000FFFFFFFFFFFFFFFFFFFFFFFFFFFFFFFF40
:1010C000FFFFFFFFFFFFFFFFFFFFFFFFFCFFFFF33F
:1010D000FC00C003FF00000FFFFF3FFFFFFFFFFF0B
:1010E000FFFFFFFFFFFFFFFFFFFFFFFFFFFFFFFF10
:1010F000FFFFCFFFFFFFF3FFFFFFF3FFFFFFCFFF78
:10110000FFFF3FFFFFFF3FFFFFFFCFFFFFFFFFFF9F
:10111000FFFFFFFFFFFFFFFFFFFFFFFFFFFFFFFFDF
:10112000FFFFFFFFFFFFFFFFFFFFFFFFFFFFFFFFCF
:10113000FFFFFCF003FFFFFFFFFFFFFFFFFFFCF0DF
:1011400003FCF003FCF003FCF003FCF003FCF003F1
:10115000FCF003FFFFFFF0CCFFFF003FF0CCC3FF2C
:10116000003FF0CCC3FFFFFFFFFFFFFF0C3FFF334B
:10117000CFF033C3FFC3CFFFFFFFFFFFFFFFFFFF32
:10118000FFF3CFFFF333FF33CFFCCCFFFF3CFFFF78
:10119000FFFFFFFFFFFF0FFFFCF0FFFCCF3FFF3F14
:1011A0003FFCCFFFFFFFFFFFFFFFFFFFFFFFFFFF42
:1011B000FFFCF3FFFFFFFFFFFFFFFFFFFFFFFFFF4E
:1011C000FFFFFFFFFFFCFF3FC3FFC3FFFFFFFFFF6A
:1011D000FFFFFFFFFFFFFFC3FFC3FCFF3FFFFFFF5A
:1011E000FFFFFFFFFFFFFFFFFFFFFFCFFFF0CFFF7E
:1011F000FF03FFF0CFFFFFCFFFFFFFFFF3FFFFF382
:10120000FFFFF3FFFC000FFFF3FFFFF3FFFFF3FF10
:10121000FFFFFFFFFFFFC3FFFFF03FFFFF3FFFFFA9
:10122000FFFFFFFFFFFFFFFFFFF3FFFFF3FFFFF3F2
:10123000FFFFF3FFFFF3FFFFFFFFFFFFFFFFFFFFD6
:10124000FC3FFFFC3FFFFFFFFFFFFFFFFFFFFFFF34
:10125000FFFFF3FFFFFC3FFFFFC3FFFFFC3FFFFF6C
:10126000C3FFFFFFFFFFFFFF000FFCFFF3FCFFF3D7
:10127000FCFFF3FF000FFFFFFFFFFFFFFCFFFFFC82
:10128000FFF3FC0003FCFFFFFCFFFFFFFFFFFFFF7E
:10129000FFFC3FCFFCCFF3FCF3F3FCFCF3FC3F0F70
:1012A000FFFFFFFFFFFFFF3FCFFCFFF3FCFCF3FC62
:1012B000FCF3FF030FFFFFFFFFFFFFFFC3FFFFCCA8
:1012C000FFFFCF0FFCCFF3FC0003FCCFFFFFFFFFBE
:1012D000FF3FFFFCFC03FCFCF3FCFCF3FF03F3FF0C
:1012E000FFFFFFFFFFFF003FFCFCCFFCFCF3FCFC1B
:1012F000F3FF03F3FFFFFFFFFFFFFFFFC3FFFFF35A
:10130000FC3FF3FFC0F3FFFF03FFFFFFFFFFFFFF03
:10131000030FFCFCF3FCFCF3FCFCF3FF030FFFFFEB
:10132000FFFFFFFFFCFC0FFCF3F3FCF3F3FF33F3D1
:10133000FFC00FFFFFFFFFFFFFFFFFFFFC3C3FFC75
:101340003C3FFFFFFFFFFFFFFFFFFFFFFFFFFFFF30
:10135000FFF0FFFFFC3CCFFF3CCFFFFFFFFFFFFF95
:10136000FFF3FFFFCCFFFFCCFFFF3F3FFCFFCFFCB5
:10137000FFCFFFFFFFFFFFFFFFCCFFFFCCFFFFCC46
:10138000FFFFCCFFFFCCFFFFFFFFFCFFCFFCFFCF39
:10139000FF3F3FFFCCFFFFCCFFFFF3FFFFFFFFFF4F
:1013A000FFFFFFFFFFFCFF3FFCFFCFFFF3CFFFFC82
:1013B0003FFFFFFFFFFFFFFC0003F3FFFCF3F0FC28
:1013C000F3CF3CFCC003FFFFFFFCFFFFFC0FFFFC63
:1013D000C033FFCFC3FCC03FFC0FFFFCFFFFFCFF8F
:1013E000F3FC0003FCFCF3FCFCF3FCFCF3FF030F39
:1013F000FFFFFFFFFFFFFF000FFCFFF3FCFFF3FC0D
:10140000FFF3FF3FC3FFFFFFFCFFF3FC0003FCFF04
:10141000F3FCFFF3FF3FCFFFC03FFFFFFFFCFFF3F5
:10142000FC0003FCFCF3FCF033FCFFF3FC3FC3FFC8
:10143000FFFFFFFFFFFCFFF3FC0003FCFCF3FFF0EA
:1014400033FFFFF3FFFFC3FFFFFFFF000FFCFFF3BE
:10145000FCF3F3FF03C3FFF3FFFFFFFFFCFFF3FC0D
:101460000003FCFCF3FFFCFFFCFCF3FC0003FCFFAF
:10147000F3FFFFFFFCFFF3FCFFF3FC0003FCFFF3B3
:10148000FCFFF3FFFFFFFFFFFFFF03FFFCFFF3FC89
:10149000FFF3FF0003FFFFF3FFFFFFFCFFF3FC0080
:1014A00003FCF3F3FFF0FFFFCF33FC3FC3FCFFF37C
:1014B000FFFFFFFCFFF3FC0003FCFFF3FCFFFFFC5E
:1014C0000FFFFFFFFFFCFFF3FC0003FCFF03FFF037
:1014D000FFFCFF03FC0003FCFFF3FCFFF3FC000335
:1014E000FCFF03FFC0FFFC3FF3FC0003FFFFF3FF23
:1014F000FFFFFF000FFCFFF3FCFFF3FCFFF3FF0017
:101500000FFFFFFFFFFFFFFCFFF3FC0003FCF3F303
:10151000FFF3F3FFFC0FFFFFFFFFFFFFFF000FFCD8
:10152000FFF3F0FFF3F0FFF3F3000FFFFFFFFCFF0B
:10153000F3FC0003FCF3F3FFF3F3FFC3F3FF3C0FF3
:10154000FCFFFFFFFFFFFC3F0FFF3CF3FCFCF3FC45
:10155000FCCFFF03C3FFFFFFFFFFC3FFFFF3FCFF51
:10156000F3FC0003FCFFF3FFFFF3FFFFC3FFFFF3F8
:10157000FF0003FCFFF3FCFFFFFCFFF3FF0003FF92
:10158000FFF3FFFFF3FFFF03FFC0F3FC3FFFFFC0CC
:10159000F3FFFF03FFFFF3FFFFF3FF0003FCFFF385
:1015A000FF00FFFCFFF3FF0003FFFFF3FCFFF3FC72
:1015B0003FC3FFCF3FFFF0FFFFCF3FFC3FC3FCFF28
:1015C000F3FFFFF3FFFFC3FCFC33FC03FFFCFC3322
:1015D000FFFFC3FFFFF3FFFFFFFC3FC3FCCFF3FCA4
:1015E000F0F3FCFF33FC3FC3FFFFFFFFFFFFFFFFF4
:1015F000FFC00003CFFFF3CFFFF3FFFFFFFFFFFFAD
:10160000FFFFFFFFFFF3FFFC0FFFC3FFF03FFFFFF4
:10161000FFFFFFFFFFFFFFFFFFFFFFCFFFF3CFFF46
:10162000F3C00003FFFFFFFFFFFFFFFFFFFFFCFF13
:10163000FFFF3FFFFFC3FFFF3FFFFCFFFFFFFF3F39
:10164000FFFF3FFFFF3FFFFF3FFFFF3FFFFF3FFF6A
:10165000FF3FFFFFFFFFFFFFFFFFFFFFFFFFFFF366
:10166000FFFFCFFFFFFFFFFFFFFFFFFFFF0CFFFCB0
:10167000F33FFCF33FFCF33FFC00FFFCFFFFFCFFEC
:10168000F3FC0003FCFCFFFCFF3FFCFF3FFF00FFFF
:10169000FFFFFFFFFFFFFF00FFFCFF3FFCFF3FFCE2
:1016A000FF3FFF3C3FFFFFFFFFFFFFFF00FFFCFF8F
:1016B0003FFCFF3FFCFCF3FC0003FCFFFFFFFFFFD0
:1016C000FF00FFFCF33FFCF33FFCF33FFCF0FFFFA8
:1016D000FFFFFFFFFFFCFF3FFC000FFCFF33FCFFA1
:1016E00033FCFF33FFFFFFFFFFFFFF00FFCCFF3F97
:1016F000CCFF3FCCFCFFF0003FFFFF3FFCFFF3FCC3
:101700000003FCFCFFFFFF3FFCFF3FFC00FFFCFF72
:10171000FFFFFFFFFCFF3FFCFF3FFC0033FCFFFF30
:10172000FCFFFFFFFFFFFFFFFFCFFF3FCFFF3FCFDC
:10173000FF33F0003FFFFFFFFFFFFFFCFFF3FC0064
:1017400003FFF3FFFCC33FFC3C3FFCFF3FFFFFFFF9
:10175000FFFFFFFCFFFFFCFFF3FC0003FCFFFFFCAF
:10176000FFFFFFFFFFFCFF3FFC003FFCFF3FFC00D3
:10177000FFFCFF3FFC00FFFCFFFFFCFF3FFC003FC6
:10178000FCFCFFFFFF3FFCFF3FFC00FFFCFFFFFFF7
:10179000FFFFFF00FFFCFF3FFCFF3FFCFF3FFF00A0
:1017A000FFFFFFFFCFFF3FC0003FCCFCFFFCFF3F30
:1017B000FCFF3FFF00FFFFFFFFFFFFFFFF00FFFCFD
:1017C000FF3FFCFF3FCCFCFFC0003FCFFF3FFFFFD0
:1017D000FFFCFF3FFC003FFCFCFFFCFF3FFCFF3F2A
:1017E000FFFFFFFFFFFFFC3CFFFCF33FFCF33FFC70
:1017F000F33FFF0C3FFFFFFFFFFFFFFFFF3FFF0037
:101800000FFCFF3FFCFF3FFCFF3FFF3FFFFFFF3FA1
:10181000FF003FFCFFFFFCFFFFFF3F3FFC003FFCE2
:10182000FFFFFFFF3FFFF03FFF0F3FFCFFFFFF0FFA
:101830003FFFF03FFFFF3FFFFF3FFF003FFCFF3F49
:10184000FF03FFFCFF3FFF003FFFFF3FFCFF3FFCAC
:101850003C3FFFC3FFFFC3FFFC3C3FFCFF3FFFFFDC
:10186000FFFFFF3FCFFC3FCFC33FC03FFFCF0F3F46
:10187000FFF03FFFFF3FFFFFFFFC3C3FFCCF3FFC83
:10188000F33FFCFC3FFC3F3FFFFFFFFFFFFFFFFF7D
:10189000FFFFCFFFF0300FCFFFF3FFFFFFFFFFFF92
:1018A000FFFFFFFFFFFFFFFFFFF00003FFFFFFFF52
:1018B000FFFFFFFFFFFFFFFFFFFFFFCFFFF3F03052
:1018C0000FFFCFFFFFFFFFFFFFFFFFFFFFFFCFFF78
:1018D000FFF3FFFFCFFFFFCFFFFFF3FFFFFFFF008F
:1018E000FFFFFFFFFFFFFFFFFFFFFFFFFFFFF30013
:1018F000FFFFFFFFFFFFFFF0FFFFFFF0FFFFCCCF79
:10190000F003CCCCF003FCCCFFFFF3CFC300FC33DF
:10191000FFFFFFFFFF3FFF30F0CFFFCFFFFFF03FA4
:10192000F303F0F3F3F3FFFFFFFFFFC0FFFFFFFF41
:10193000FFFFFFFFF003CFFCFFFFFFFFCFFCF00333
:10194000FFFFFFFFFFFFFF33FFC0FF33FFFFFF3F3E
:10195000FF3FF003FF3FFF3FFFFFFFFFC3FFFCFF21
:10196000FFFFFFFFFF3FFF3FFF3FFFFFFFFFFFFFC7
:10197000F3FFFFFFFFFFCFFFF0FFFF03FFFCFFFFC1
:10198000FFFFFC03F3FCFC03FFFFF3FFF3FCF0009D
:10199000F3FFF3FFFFFFF0F3F33CF3C3FFFFFFFFA1
:1019A000F3F3F33CFCC3FFFFFFFFFF0FF333F00043
:1019B000F33FFFFFFCC0F3CCFC3CFFFFFFFFFC0349
:1019C000F3CCFC3CFFFFFFFFFFF0F03CFFC0FFFF4C
:1019D000FFFFFC33F3CCFC33FFFFFFFFF3C3F33C0B
:1019E000FC03FFFFFFFFFFFFF3CFFFFFFFFFFFFF42
:1019F000FFFFF3FFFCCFFFFFFF3FFF3FFCCFF3F301
:101A0000FFFFFFFFFF33FF33FF33FFFFFFFFF3F362
:101A1000FCCFFF3FFF3FFFFFFFF3F33CFFC3FFFFA0
:101A2000FFFFF003CFFCCF3CCC03F0FFF30CFF3003
:101A3000F30FF0FFF3FCF000F3CCF3CCFC33FFFF2B
:101A4000FC00F3FCF3F0FFFFF3FCF000F3FCF3FC0D
:101A5000FC03F3FCF000F3CCF3FCF0F0F3FCF0003B
:101A6000F3CCFFFCFFF0FFFFFC03F3FCF03CFF3F77
:101A7000F3FCF000F3CCFFCFF000FFFFF3FCF0002D
:101A8000F3FCFFFFFFFFFC3FF3FCFC00FFFCF3FC5B
:101A9000F000FF0FF030F3FCF3FCF000F3FCF3FF79
:101AA000F0FFF000F3C0FF3FF3C0F000F3FCF000E4
:101AB000F3C3FC3CF000FFFFFC03F3FCF3FCFC036E
:101AC000F3FCF000F33CFF3CFFC3FFFFFC03F3FC1F
:101AD000F0FCF000F3FCF000F33CFF3CF0C3FFFF30
:101AE000F3F0F3CCF030FFFFFFF0F3FCF000F3FC79
:101AF000FFF0FFFCFC00F3FFF3FCFC00FFF0FC0C2C
:101B0000F3FFF03CFFC0FC00F3FCFC0FF3FCFC0017
:101B1000F3FCF0F0FF0FF0F0F3FCFFF0F3CCF03F3C
:101B2000F3CCFFF0FFFFF0F0F33CF3CCF0F0FFFF5D
:101B3000FFFFC000CFFCFFFFFFFCFFC3F03FCFFF64
:101B4000FFFFFFFFCFFCC000FFFFFFFFFFFFFFCF46
:101B5000FFF0FFCFFFFF3FFF3FFF3FFF3FFFFFFFD4
:101B6000FFFFFFFFFFFCFFF3FFFFFFFFF0FFF0CFE2
:101B7000F00FF3FFF3FCF000F3CFF3CFFC3FFFFFD8
:101B8000F00FF3CFF3CFFFFFFFFFFC3FF3CFF3CC1A
:101B9000F000FFFFFC0FF30FF30FFFFFFFFFF3CF8A
:101BA000F003F3CCFFFFFFFFFC3F33CF33CFC00F79
:101BB000F3FCF000F3CFFFCFF03FFFFFF3CFF00CCB
:101BC000F3FFFFFFFFFF3FCF3FCC000FFFFFF3FC12
:101BD000F000FF3FF00FF3CFFFFFF3FCF000F3FF47
:101BE000FFFFF00FFFCFF03FFFCFF03FF3CFF00F3D
:101BF000FFCFFFCFF03FFFFFFC3FF3CFF3CFFC3F22
:101C00003FCF000F33CFF3CFFC3FFFFFFC3FF3CFBD
:101C1000333F000FFFFFF3CFF00FF3CFFFCFFFFFF6
:101C2000F3FFF30FFCCFFFFFFFCFFC03F3CFF3CFA6
:101C3000FCFFFFCFFC0FF3FFF3CFF00FFFCFFF0F41
:101C4000F0FFF0FFFF0FFC0FF3CFFC3FF3CFFC0FD3
:101C5000FFFFF3CFFC3FFC3FF3CFFFCF3C0F03FF71
:101C6000FC0FFFCFFFFFF3CFF0CFF30FF3CFFFFF5A
:101C7000FF3FF003CFFCFFFFFFFFFFFFC000FFFFB0
:101C8000FFFFFFFFCFFCF003FF3FFFFFFFFFFCFF65
:101C9000FF3FFCFFFF3F0000F8B5040000250026D1
:101CA000002C01D10120F2BDFF2042302718022074
:101CB0003870200000F054FE0AE01C2171436118C6
:101CC000283148700E70CD70CD600D614D61761C6D
:101CD000012061688E42F0D300260AE01C21714386
:101CE0006118B4314D700E70CD70CD600D614D61D5
:101CF000761C61688E42F1D32168403108802168EA
:101D000040310D80216844310D80216850310D80B3
:101D1000BD2000022168403108800020243420705A
:101D20003D70F2BD38B5040001D1012032BDFF2065
:101D30004230251802202870200000F010F8200002
:101D400000F033FE0020287032BD00685821415A4F
:101D5000802212020A435830028000207047A021DE
:101D6000490041180A78012A01D102207047012256
:101D70000A700068403002800022828003230380C2
:101D80000A700020704738B504002068443000888D
:101D9000000402D5200000F039FC20684421415A9B
:101DA000490509D5284944300180200000F041FE52
:101DB0000021200000F058F8206840308188490454
:101DC00001D5224981808188890401D520498180FB
:101DD00080256D01818829420DD001881D4A0A4065
:101DE0000280BD2109020180200000F02FFE1A4868
:101DF00021684431088020684030818809050FD56A
:101E000016498180018808220A4302800188042241
:101E10000A4302808088284202D1200000F015FE8B
:101E200020684421415A890505D50D494430018077
:101E3000200000F0F7FD20684421415AC90502D571
:101E400008494430018031BDFFFB0000FFBF0000A6
:101E5000FFDF0000FBFF0000FFEF0000FFF70000C6
:101E6000FFFD0000FFFE0000A02252008218137840
:101E7000012B01D10220704701231370002904D1E6
:101E8000802100684C30018001E024300170002086
:101E900010707047F1B582B07F247F2008401C2568
:101EA0006843029D28180D0601D5283000E0B430A3
:101EB0000C400470C90941700092C260C370A02137
:101EC0004900029A515C012901D10220FEBD012185
:101ED000A0225200029B9954944AC178002905D04F
:101EE00002290DD01ED3032913D026E002990968D8
:101EF00003789B00C9180B881A4080239B001AE0C6
:101F00000299096803789B00C9180B881A400A8057
:101F100013E00299096803789B00C9180B881A40DE
:101F2000C02307E00299096803789B00C9180B8851
:101F30001A408023DB0013430B8003780299096861
:101F40009A008C187A4A25887A4E2E401E431643F2
:101F500026800578C0239B01774C867A002E5FD1BE
:101F60008788764E3E406F46BE804678002E1ED053
:101F70005023CB5AED005B195B188025ED006E46AF
:101F8000B6885E5303789B00CB181D886D0605D577
:101F90001D88684E2E406A4D35431D8000788000B4
:101FA000081801880C40202161400A43BBE05024FE
:101FB0000C5BED006419641855096E46B6886653CB
:101FC00050240C5B0578ED00641964185D4D6419AC
:101FD000009D3F2D09D36D09009EF60600D16D1EB0
:101FE000AE0280252D02354305E06D08009EF60700
:101FF00000D56D1CAD0225800478A4000C1925883D
:102000006D0405D525884B4E2E404F4D3543258018
:1020100000788000081801884C4C0C40634081E037
:10202000AD004D192F88434E3E40494F37432F8016
:1020300050254D5B0678F600AD196F188026F60026
:10204000BC46C7883D4D3D406746BD5350254D5B5E
:102050000678F600AD196F185609BC460789374D4A
:102060003D406746BD530578AD004D194678002EBA
:102070002DD12E88760405D52F882E4E3E40324F26
:1020800037432F800578AD004D192E88760605D58B
:102090002F88284E3E402A4F37432F800578AD00C9
:1020A0004D192F88234E3E40254F37432F8005780A
:1020B000AD004D192E88254F37407B4013432B80B0
:1020C00000788000081801880C4022432BE02B8800
:1020D0005B0405D52B88174E1E401B4B33432B80CA
:1020E00003789B00CB181D886D0605D51D88114E01
:1020F0002E40134D35431D8003789B00CB181D885F
:102100000C4E2E40104D35431D8003789B00CB189C
:102110001D882C4014431C8000788000081801881A
:102120000A4B0B401A430280C0E000008F89000078
:10213000808000008F8F0000BF8F0000FEFF000036
:10214000C08000000604000080C000008FBF0000B7
:1021500080810000F1B582B07F227F2008401C23DF
:102160005843029B18180B0601D5283000E0B43004
:102170000A400270C9094170A0214900029A515CCD
:10218000012901D10220FEBD0121A0225200029BA3
:10219000995402990968027892008A18009242784C
:1021A0006B461A71794A7A4D7A4B7B4C867A002EAF
:1021B0006E4636791AD1002E0CD0009A128852063B
:1021C0003DD5009A1288754D1540754A2A43009DE9
:1021D0002A8034E0009C2488640460D5009C248814
:1021E0006E4E26403543009C258058E0002E009E10
:1021F00036882BD1760406D5009E3688674F374047
:102200003D43009E35800578AD004D192E88760639
:1022100005D52F88614E3E40614F37432F800578AA
:10222000AD004D192F885D4E3E405D4F37432F80E6
:102230000578AD004D192E8832401A432A80007867
:102240008000081801880C4023432EE0760406D550
:10225000009E3788514E3E402E43009F3E800678B8
:10226000B6008E1900963688760607D5009E378808
:102270004A4E3E404A4F3743009E37800678B600AC
:102280008E1900963688454F37403D43009E358075
:102290000578AD004D192E8834401C432C80007801
:1022A0008000081801880A40134303800020A02101
:1022B0004900029A5054FEBDF1B582B07F247F20C0
:1022C00008401C256843029D2818B4300261436110
:1022D0000022826142700C400470A0214900029BE0
:1022E000591800910978012901D10220FEBD012170
:1022F000009C21704469C368A34201D2E41A01E042
:1023000023000024446119400191802109028F4C6F
:10231000857A002D02D04578002D19D1029D2D68B7
:102320005026AE5B0778FF00F61975192C193F2B64
:1023300006D35D09DB0600D16D1EAB02194305E033
:102340005D080199002900D06D1CA90221800AE0D6
:10235000012D08D102990D685021695A0678F600BE
:10236000891949190B5302990D68007880002818C3
:102370000188064B0B40C021890159409B4B0B4300
:102380000380009802700020FEBD00008FBF000097
:1023900080C0000080800000BF8F00008F8F000091
:1023A000C0800000F8B506001C007F207F230B4092
:1023B0001C256B43F51828352A616C610022AA613F
:1023C00001226A7008402870A0204000305C01287B
:1023D00001D10220F2BDA021490072546869EC6865
:1023E000844201D2001B01E0040000206861A87A49
:1023F00000280FD1A3B2AA882969306800F090FAAA
:1024000030685021415A2A78D20089180818784932
:1024100044524CE068784D4900281AD13068502366
:10242000C35A2F78FF00DB19181840183F2C09D326
:102430006109E20600D1491E8902802212020A4384
:10244000028010E06108224000D0491C890201800E
:1024500009E0012807D130685022825A2B78DB002E
:10246000D21810184452306829788900415A490618
:1024700001D52A8900E0EA88A3B2296900F050FA60
:1024800069785C48002907D1297889003268511899
:102490000A881040584A08E0012908D129788900A3
:1024A000326851180A881040544A02430A8028783A
:1024B0008000316808180188514A0A403021514093
:1024C0004A4A0A4302800020A02149007054F2BD0C
:1024D00070B5A022520083181A78012A01D1022077
:1024E00070BD01241C700D007F220E0605D515401D
:1024F0001C2675434519283503E01C2675434519EC
:10250000B435AC700A402A70C9096970046837484C
:10251000002A07D121883B4A0A40C108514008439C
:1025200020800FE09200A2180029118803D0344CBB
:102530000C40102103E0344C0C40802149016140E3
:10254000084310800020187070BD000006040000D1
:10255000F0B50A007F240B0605D522401C235A4300
:102560008218283203E01C235A438218B432002315
:1025700093700C401470C9095170A0214900411892
:102580000C78012C01D10220F0BD01240C700468EC
:102590001078800025181548164E5778002F2F8880
:1025A0000ED07F0604D52F883E40134F37432F802F
:1025B00012789200A2181488114D254030240EE0A4
:1025C0007F0404D52F883E400C4F37432F8012786C
:1025D0009200A21814880C4D2540C024A4016C4020
:1025E000204310800B700020F0BD000080800000B0
:1025F000020400008F8F0000C080000080C0000037
:10260000BF8F0000BFBF00008FBF0000FEB50500F8
:10261000002069460880B94F28E00188B84A0A407E
:1026200002802C00283428685021415A2278D20098
:1026300089180818F91C405A3840A0612169081807
:1026400020610021280000F0E2F92420285C002805
:102650000CD06069002809D12420285C8021014326
:1026600028684C300180002024216854286801002B
:1026700044310A886B465A80120400D43AE16A4613
:1026800052881207120F6AD16A465288D206C4D500
:102690002C00B43402881A806A461288120519D5B3
:1026A00089892278D200891808189649405A3840FA
:1026B000A0610346A288A22040002918286800F0E3
:1026C00041F928680188904A0A400280280000F0F9
:1026D00088F9CBE7694609880904C7D501888A4A81
:1026E0000A40028028685021415A2278D200891875
:1026F00008188449405A3840A061034608D0A2888F
:102700002169286800F01EF9A06921690818206174
:102710000021280000F06FF928685021415A08185C
:1027200078494018E1683F2908D34A09C90600D111
:10273000521E920280210902114304E04A08C9078F
:1027400000D5521C91020180286801886F4A0A4016
:10275000C021890151406E4A0A43028086E79100F8
:1027600002914018018819801C214A43A91801913F
:1027700069460988090457D50188634A0A400280DE
:10278000019CB4342378D9002868A67A002E0ED193
:102790005023C35A591809185A4A895A3E000E4004
:1027A0002DD03300A288216900F0CCF827E09B00EF
:1027B000C35A5B040BD55023C35A59180918FA1C85
:1027C000895A3E000E4010D03300E2880AE05023C0
:1027D000C35A591809184B4A895A3E000E4004D072
:1027E00033002289216900F0ADF820788000296843
:1027F00008180188474A0A40474911430180A069E7
:102800008019A06121698A1922616369002B02D0B5
:10281000E068864204D22178280000F0ECF803E05A
:1028200021782800FFF748FD6846008800065CD53F
:10283000019C28340298296808180188304A0A4007
:1028400002802378D8002A681100A67A002E0FD1C2
:102850005032128810184018F91C405A3840A061B4
:1028600003462ED0A2882169286800F059F828E094
:102870009B00D35A5B060BD55032128810184018B3
:10288000F91C405A3840A061034610D0E2880AE0A3
:1028900050321288101840181A49405A3840A06126
:1028A000034604D022892169286800F039F820788D
:1028B0008000296808180188164A0A401749114300
:1028C0000180217828685022825ACB00D218101833
:1028D000FA1C805A3840A06122691218226163698B
:1028E000002B03D1280000F092F8BFE62800FFF784
:1028F00059FDBBE60020FEBD00000000FF03000004
:102900000F8F0000060400008F0F00008FBF000033
:10291000808000008F8F0000C080000080C0000019
:1029200010B510188022D20080185B1C5A1007E0E6
:102930000B784C7824021C430480801C891C521E96
:10294000F6D110BD10188022D20080185B1C5A10DE
:1029500004E003880B80801C891C521EF9D170474B
:1029600010B586B0814C2068012101432160C02050
:102970004001009002200190002002900321039169
:1029800004906946A020C00500F012F9E06880219B
:1029900009040143E160002203211F2000F05BFADB
:1029A0001F2000F05CFA06B010BD10B570487149E8
:1029B00002690A4002610268CB4313430360026864
:1029C00011400160A024E405C10C200000F0AEF924
:1029D00080214901200000F0A9F91F2000F046FAEB
:1029E00010BD80B5A22149004118BA22520080587A
:1029F00000F0B4FA01BD80B51C224A438218C432EB
:102A00001268BA235B00C05800F0D5FA01BD80B54A
:102A10001C224A438218926BBA235B00C05800F014
:102A2000FFFA01BD80B5BA214900405800F068FBAB
:102A300001BD10B5BA21490044180121206800F0F9
:102A40005CFB206800F036FB10BD7047704710B586
:102A500001004948494A0260082242604022C2609F
:102A6000022202618260BA2252008150AC328C187C
:102A70002060FFF711F9182300220021206800F0E0
:102A800051FB582300228021206800F04BFB80235B
:102A90005B0000228121206800F044FB002010BD73
:102AA00080B5882189004058FFF73CF9002002BD1D
:102AB00080B5882189004058FFF747F9002002BD02
:102AC00080B5882189004058FFF749F9002002BDF0
:102AD00010B51C00130022008824A4000059FFF741
:102AE000D9F9002010BD80B5882292008058FFF7E8
:102AF00031FB002002BD80B5882292008058FFF78C
:102B0000E7FC002002BD80B5882292008058FFF7C4
:102B10001FFD002002BD8822920080584A06520EF6
:102B20001C235A438018090601D52A3000E0B6302C
:102B30000078704780B5882292008058FFF794F99A
:102B4000002002BD10B58824A4000059FFF72AFC1C
:102B5000002010BD10B58824A4000059FFF7ACFB7D
:102B6000002010BD06487047000000002C100240F5
:102B700028100240FFFF7FFF48100020005C00404B
:102B800088140020704738B4012100220368001D1A
:102B9000002B0BD00468001D0C4202D04D466D1E68
:102BA00064192260241D1B1FF0D0FAE732BC704765
:102BB000F1B583B00022032301240120904002904C
:102BC0000D680540854200D0ABE04868022801D07E
:102BD000122812D1D0088000039E30180090006A9D
:102BE0005607F60E0F27B740B8430F69BC463700AB
:102BF0006646BE4006430098066256000320B04079
:102C0000C74300974868012805D0022803D011283F
:102C100001D0122813D10398876800983840CF68F4
:102C2000B74007430398876003984068029FB84302
:102C30004F683F0927409740074303984760039830
:102C40000768009838404F681F40B7400743039813
:102C500007600398C768009838408F68BC46370003
:102C60006646BE4006430398C6604868C00058D513
:102C7000634800682043624E306090088000614ED7
:102C800030180090006803271740BE006F463E7161
:102C90000F26F6433F79BE4006400398A027FF0564
:102CA000B84201D1002014E0574FB84201D10120B1
:102CB0000FE0564FB84201D102200AE0544FB8420B
:102CC00001D1032005E0534FB84201D1042000E0B8
:102CD00005206F463F79B8403043009E30604E4833
:102CE0000668E84306404F68FF0300D52E434A4F6D
:102CF0003E607E6806404F68BF0300D52E43464FB6
:102D00007E60BE6806404F68FF0200D52E43424FEA
:102D1000BE60FE6830404E68B60201D5054328000B
:102D2000F860521C102A00D247E7FFBDF2B583B00D
:102D300001000022384B0126964003983040029053
:102D40000298B0423CD157000320B840C7430097D7
:102D5000086807400F60D008800008180190076AD3
:102D6000BC465007C70E0F20B840674687430198FE
:102D700007628868009F07408F604868B0434860DA
:102D8000C868009E0640CE60900880001D4E361830
:102D90003768BC460320104087000F20B8406746C4
:102DA00087433760029EF0431E6806401E605E68DF
:102DB00006405E609E6806409E60DE683040D860D7
:102DC000521C102AB7D306B0C0BD0069084000D01D
:102DD0000120C0B27047002A01D081617047816232
:102DE000704742694A40426170470C4A1368034089
:102DF00000D1704780B5106000F0A0FD01BD00005B
:102E00003410024008000140000400500008005047
:102E1000000C0050001C005000040140140401404C
:102E200010B58207D30EFF249C40E2438907090EA8
:102E30009940030006D50007000F0838800880007D
:102E4000184B02E080088000174B181803681A40DE
:102E50001143016010BD80B5FFF7E2FF01BD012104
:102E6000C006C00E81401148016070470121C006B4
:102E7000C00E81400E480160704710B5401E802191
:102E80004904884201D3012010BD0A4C606003212F
:102E90000020C043FFF7C4FF0020A060072121608D
:102EA00010BD00001CED00E000E400E000E100E0E7
:102EB00080E100E010E000E010B5002801D1022020
:102EC00010BD85239B00C3181C68002C01D0002472
:102ED0001C60002902D084239B00C1500121FE23E5
:102EE0005B00C1540270FFF7B2FD002010BD10B5A9
:102EF0000400FE2040002218012010706168C9B251
:102F000020009269526890472000FFF7D9FD200009
:102F1000FFF7C6FD002010BD0022002903D0852345
:102F20009B00C15000E002221000704780B5FFF7FF
:102F3000BFFD002002BD10B50224852292008258F8
:102F4000002A04D012689047002800D100242000F5
:102F500010BD80B5852292008258DFE038B50400AC
:102F6000822080002518280000F0BCFEFA204000D6
:102F7000201801210160418B4160017DC806C00E0F
:102F800003D002280BD005D30EE02900200000F06A
:102F900001FD0EE02900200000F0A4FD09E0290059
:102FA000200000F0BCFD04E0802001402000FFF77D
:102FB000A2FD002032BD38B504001000FA225200F4
:102FC000A318002921D18221490061181A68032A17
:102FD00024D18D68CA68AA420AD2AB1A8B60934288
:102FE00000D21A0092B20100200000F0CFFE15E0DE
:102FF000186A0169080004D0187A032801D120005A
:103000008847200000F0C6FE08E0186A82691000B8
:1030100004D0187A032801D120009047002032BD47
:10302000F8B504001000FA225200A618002936D183
:103030002100143100253268022A2BD18A68CB681E
:103040000093934207D2D21A8A6092B20100200004
:1030500000F098FE1EE04F683800194600F0CBFEE5
:1030600000290BD10098874208D37068874205D2A7
:103070000022200000F086FE75600BE0306AC16817
:10308000080004D0307A032801D1200088472000AE
:1030900000F08CFE307B01280AD1357308E0306ADD
:1030A0004269100004D0307A032801D120009047F3
:1030B0000020F2BD38B50500402300220021FFF7B3
:1030C00007FD4024882040002C504023002280210E
:1030D0002800FFF7FDFC281DC461FE2149006A1885
:1030E00001211170D169002905D00168C9B22800F9
:1030F000926952689047002032BD017400207047E9
:1031000080B5FE21490041180A78032A04D1896953
:10311000C9690A0000D08847002002BD5268904764
:10312000002002BD10B50C0606D54906490E1C2428
:1031300061434018283003E01C2461434018B43038
:10314000002A03D100218172838004E00121817271
:10315000C380190C0181002010BD0268531C03605C
:1031600011707047FEB5744800680190734CFA20E6
:10317000C0002018029000250126714F20780028F9
:1031800008D0022870D033D3042800D1EAE000D25E
:1031900085E0F7BD6B4800F0A2FE200008300090EB
:1031A000AC2348220021002000F061FF0223664A80
:1031B0000D21002000F0CEFE380000F090FE032329
:1031C000624A0821572000F0C5FE0323604A03210C
:1031D000472000F0BFFE03235E4A00215E2000F07E
:1031E000B9FE00F073FFFA20C00000F0BAFFCBE197
:1031F000FF2000F077FE584820180090302330223E
:103200000021052000F033FF5448201800901A23B5
:1032100030220021822000F02AFF029800903C23F7
:10322000102200213C2000F022FF380000F057FE61
:1032300001234B4A0D21002000F08CFE0323D34ACA
:103240000721382000F086FE0323D14A04213520CF
:1032500000F080FE0523A6220C21022000F0EDFEE6
:1032600000F034FF02208DE10198857000F0A2FF8C
:1032700000288ED0019800780A2801D0042888D12F
:1032800001988078010003D0802801DA032079E1D9
:10329000802800DA79E1FF2800D176E171E1FF2092
:1032A00000F020FEBB482018009092231C2204212D
:1032B0000D2000F0DCFE380000F011FE012300BFFD
:1032C000B9A20D21002000F045FE0323BBA201217D
:1032D0000F2000F03FFE0523A6220C21022000F063
:1032E000ACFE04231A220021912000F0A6FEAA4879
:1032F00000F0F5FD032300BFB5A20121922000F0EC
:1033000029FE00F0E3FE01998D7000F0E4FA00F070
:10331000D5FF656005E000F04DFF002801D001F009
:1033200002F860680028F6D000F0F8FA9B48FFF732
:10333000DEFD656028E100BF887F000800000020F6
:10334000D00D0020C80D0020208100082C8100082D
:103350003881000848810008140600003407000086
:1033600050810008012001F01FF8002001F01CF836
:10337000FF2000F0B7FD029800903C2310220021AE
:103380001E2000F074FEA9200001201800902023C8
:1033900020220421032000F06AFEB1200001201841
:1033A00000901D2320220421322000F060FE7C4882
:1033B000201800901D23202204215A2000F057FEDF
:1033C000784820180090202320220421822000F039
:1033D0004EFE380000F083FD012300BF7EA20D21C8
:1033E000002000F0B7FD0523A6220C21022000F0EA
:1033F00024FE032339220021712000F01EFE6648BE
:1034000000F06DFD032300BFA0A20121742000F095
:10341000A1FD00F05BFE01998D70022001990870FA
:10342000656001E000280CD100F0C4FE019801782D
:103430006068002805D1019880780A29F2D0002818
:10344000F2D00A2900D09FE00198807867A6002872
:103450000CD041280ADA01F0DDF8FF2000F042FD2F
:10346000380000F03CFD012365A25EE00100413917
:103470003F291DD2FF2000F035FD380000F02FFD60
:10348000012300BF62A20D21002000F063FD05238F
:10349000A6220C21022000F0D0FD00F017FE01F062
:1034A0008FF9FF2000F01EFD012300BF5DA23CE06C
:1034B000803840281CD2FF2000F014FD380000F0B6
:1034C0000EFD01235CA20D21002000F043FD052329
:1034D000A6220C21022000F0B0FD00F0F7FD01F063
:1034E00083FAFF2000F0FEFC012300BF57A21CE07E
:1034F000FF2000F0F7FC380000F0F1FC012300BFD2
:1035000058A20D21002000F025FD0523A6220C2144
:10351000022000F092FD00F0D9FD01F0BDFBFF207C
:1035200000F0E0FC012300BF53A20D21002000F0B9
:1035300011FD0523A6220C21022000F07EFD0323AD
:1035400032000721082000F005FD0323CD4A0321A6
:10355000082000F0FFFC042339220021712000F034
:103560006CFD0D4800F0BBFC032300BF47A2012106
:10357000742000F0EFFC00F0A9FD65606068002891
:10358000FCD004202070F7BD2670F7BD68810008CC
:103590007481000848080000180E0020240E002046
:1035A000840B0000F80B000053544D33324C30357F
:1035B00033205553422044656D6F00004C454654FE
:1035C00020524947485420555020444F574E000040
:1035D000423120457800000053544D33324C303591
:1035E00033204944442044656D6F00004375727276
:1035F000656E7420636F6E73756D7074696F6E00A5
:103600004D435520696E2052756E204D6F646500E4
:103610004D435520696E20536C656570204D6F6475
:103620006500000057616B652075702066726F6DD4
:1036300020536C65657000004D435520696E204C29
:1036400050536C656570204D6F64650057616B6504
:103650002075702066726F6D204C50536C656570DC
:10366000000000004D435520696E2053746F702098
:103670004D6F64650000000057616B652075702018
:1036800066726F6D2053544F500000004231207419
:103690006F20457869740000F0B585B0AA4CE068E9
:1036A00001210143E160E06802210143E160E0683B
:1036B00004210143E160E06808210143E160E06822
:1036C00080210143E160A149A020C00502680A6091
:1036D00042684A6082688A60026ACA60426A0A6115
:1036E0009B4A12684A619A4A52688A61984A92686B
:1036F000CA61974A126A0A62954A526A4A62954FAB
:103700003A688A627A68CA62BA680A633A6A4A633D
:103710007A6A8A63904E3268CA6372680A64B268D1
:103720004A64326A8A64726ACA648C4D2A680A657D
:103730006A684A65AA688A652A6ACA656A6A0A6600
:103740008749009103210191002102916946FFF709
:103750002FFA69467E48FFF72BFA69463800FFF7D3
:1037600027FA69463000FFF723FA69462800FFF779
:103770001FFAE06801218843E060E0680221884385
:10378000E060E06804218843E060E0680821884345
:10379000E060E06880218843E060724801F0FAFB55
:1037A00071482169014021612168C2430A432260B6
:1037B00021680840206060696C490140616105B082
:1037C000F0BD10B56A4C20680121014321602068DA
:1037D0000221014321602068042101432160206807
:1037E0000821014321602068802101432160A0213C
:1037F000C905564802680A6042684A6082688A6061
:10380000C2680A6202694A62514942690A60826971
:103810004A60C2698A60026A0A62426A4A624D4923
:10382000826A0A60C26A4A60026B8A60426B0A62FC
:10383000826B4A624849C26B0A60026C4A60426C01
:103840008A60826C0A62C26C4A624449026D0A60F4
:10385000426D4A60826D8A60C26D0A62006E486283
:103860000121002000F0B6FD60688021490201437B
:10387000616000F001FDA068A10C0143A16000F0AF
:1038800011FB10BD1813002030B593B0394CE06A1D
:10389000802149050143E16237480168374A0A40FF
:1038A000810C11430160022005900125089505A8AF
:1038B00001F090FB0F2000900195002002900390F2
:1038C00004900121684601F061FD2068E90301438D
:1038D000216013B030BD10B596B0202408940120AB
:1038E0000E9008A801F076FB40200090000506909D
:1038F000684601F0ADFE22480168A2050A43026055
:10390000204800210160210641601F49C160222139
:103910000161446101F02DFF16B010BD00B58FB0FC
:103920002020009000200690684601F053FB1448C8
:103930000168164A0A4002600FB000BD012801D19B
:103940001349486070470000201002402C130020EB
:103950000004005000080050000C0050001C0050F3
:10396000FFFF0000E4130020FFFFFEFFFFEFFFFF5B
:103970002C1002400C10024000700040FFE7FFFFD7
:1039800038100240481400207FBB0000FFFFFFF703
:1039900000000020F8B504000F00FE2040002618AB
:1039A0000320002201257978092951D801A35B5C05
:1039B0005B009F446D834D7E4D09044D5C2B3900A7
:1039C000200000F011F989E0B888002840D1F8887B
:1039D00000283DD1B8784006400E6946087030781E
:1039E000032835D068460078B0706846017820001A
:1039F000FFF7A0F8200000F0CDF968460078002815
:103A000002D00220307069E0357067E0344D79886B
:103A10002970297802291BDA3378022B1DD0032B59
:103A200016D1002906D10220307062602000FFF715
:103A300090FA50E0606881424DD0C1B22000FFF79B
:103A400088FA297861602000FFF775FA022842D1D0
:103A50003900200000F05AF940E000293BD06160B5
:103A600030702000FFF767FA0228F1D033E0F888C1
:103A70000128EDD13078022804D00328E8D10122B2
:103A8000211D12E0201D42600122210008310CE0BE
:103A90003178891E0129DBD8B168002900D00325BF
:103AA000201D8560022221000C31200000F05AF90F
:103AB00014E07888012811D1B56007E03078801EC5
:103AC0000128C5D87888012808D1B26039002000C3
:103AD000B26992689047200000F05CF90020F2BDC6
:103AE000AE14002038B505000C00FE2040002A1856
:103AF000107803280ED1A088C0B202280ADA280064
:103B0000926992689047E088002806D1280000F06A
:103B100041F902E0280000F0F9F8002032BD70B54C
:103B200004000D00A988C9B27F207F220A408300CB
:103B3000E6186B78002B2ED0012B11D0032B51D11E
:103B40003078022812D0032848D16888002819D17B
:103B5000002917D0802915D02000FEF7CCFF11E0F6
:103B60003078022802D0032804D037E0002939D069
:103B7000802917E06888002834D1002A07D0200067
:103B8000FEF7C1FF29002000B2699268904720002B
:103B900000F000F926E03378022B02D0032B06D088
:103BA0001CE0002A1ED02000FEF7A5FF1AE0084006
:103BB00000012518080601D5143502E082204000D6
:103BC0002D182000FEF7A7FF002800D00120286054
:103BD00002222900200000F0C5F803E0290020009F
:103BE00000F094F8002070BD70B582B004000D00A4
:103BF0006888842189006218010A012908D00229F5
:103C00001ED0032929D0062955D007295BD064E0AE
:103C10006946207C12681268904769460988002925
:103C20000DD0E98800290AD06A4612888A4200D954
:103C30000A0069460A800100200000F093F873BD75
:103C400051680226207C0028684603D1896A88478B
:103C50004670E2E7C96A8847FAE7C0B205283CD84F
:103C600001A1095C8F4400BF06121E2A3642694634
:103C7000207C126852689047CFE76946207C126822
:103C800092689047C9E76946207C1268D2689047DD
:103C9000C3E76946207C126812699047BDE7694610
:103CA000207C126852699047B7E76946207C126809
:103CB00092699047B1E7207C00280ED16846516890
:103CC000496B8847A9E7207C002806D168465168DF
:103CD000096B8847072141709FE72900200000F009
:103CE00015F873BD0A7802704A7842708A78CB78EA
:103CF0001B02D21842800A794B791B02D2188280AB
:103D00008A79C97909025118C180704710B5040039
:103D10008021FEF7F0FE00212000FEF7ECFE10BD32
:103D2000002800D1704770B504000023002501E091
:103D30006D1C641C2678002EFAD12D06EC0DA41CF7
:103D4000148012880A7003224A70022206E0D2B25E
:103D50008C54401C521CD2B28B54521C0478002C40
:103D6000F5D170BD10B50223FA246400035103009D
:103D700018331A605A6013000A000021FEF7E2FEB1
:103D8000002010BD80B513000A000AE080B51300C2
:103D90000A0012E080B50421FA225200815000236B
:103DA00000220021FEF7CEFE002002BD80B50521D5
:103DB000FA2252008150002300220021FEF7CAFEA1
:103DC000002002BDF446002804D4494200F013F854
:103DD000404260474042002905D45FD000F00BF814
:103DE000404249426047494200F005F84942604775
:103DF00003460B43E6D40022030A8B420BD203098D
:103E00008B4219D243088B422ED2411A00D201466E
:103E1000524110467047FF2209023FD012068B42E2
:103E200005D3121209028B4201D3121209020309AF
:103E30008B4219D300E0090AC3098B4201D3CB019D
:103E4000C01A524183098B4201D38B01C01A5241DF
:103E500043098B4201D34B01C01A524103098B42E3
:103E600001D30B01C01A5241C3088B4201D3CB00CE
:103E7000C01A524183088B4201D38B00C01A5241B1
:103E800043088B4201D34B00C01A5241884200D3F1
:103E9000401A5241CFD201461046704708B501F092
:103EA000C1FC08BD10B5944C200008302060934838
:103EB000606000688047FF2000F014F82000103098
:103EC0002060002010BD80B58B4840684069804765
:103ED00002BD80B5884840688069804702BD864938
:103EE0000860704770B50500834C1123AB22002198
:103EF00000206668B668B047814EE8B261684968DC
:103F00008847761EF9D170BDF0B583B07A4D2C6824
:103F1000A388E688203AD2B272435A432468A21892
:103F2000019200240093774A8B199B189BB2009F43
:103F3000C719BA1892B26F68BF68B847009846436D
:103F400005E00198005D696849688847641CB442CF
:103F5000F7D3F7BDFBB50400170000260025380095
:103F600000E0761C0100401C09780029F9D1FFF718
:103F7000AAFF614909688988FFF73DFF6946097A08
:103F8000012902D0022908D01BE0801B5A49096888
:103F9000898848434008241813E06142801B564A30
:103FA0001268928850430C180BE03A786846818872
:103FB000A0B2FFF7A9FF50480068808824187F1C32
:103FC0006D1C3E78002E00D00126FFF77CFF01001B
:103FD000494800688288ADB228005043081A80B270
:103FE00090428041C043C00F0642DED1F7BDF8B514
:103FF00016000024404D0B00821992B26F68BF6812
:10400000B84704E03F20696849688847641CB442A7
:10401000F8D3F1BDF8B516000024374D8B199BB2CB
:1040200002006F68BF68B84704E00020696849680B
:104030008847641CB442F8D3F1BDF8B504000E0003
:1040400015001F00FFF7D3FF6A1C92B2F11989B265
:104050002000FFF7CCFF3A0031002000FFF7DAFF25
:104060003A003100601980B2FFF7D4FFF1BDF7B517
:1040700005001E00204C2348694689886A4612893B
:10408000920889180B189BB2A9190A1892B26846AF
:10409000818828006768BF68B8476068C7693800CA
:1040A00007D008980090330068460289818828006C
:1040B000B847FFF70EFF0500FFF705FFABB282B26E
:1040C000002100206468A468A047F7BD80B50A48B5
:1040D0004068C068804780214900A020C005FEF7E5
:1040E00074FE0028F7D1012204210748FEF773FE71
:1040F0000A2000F085FA01BDC00D00202C0D002023
:10410000180C0000FFFF00000004005080B522489A
:10411000016840220A430260016802220A430260E9
:10412000032000F004F801F07FFB002002BD10B571
:10413000040001F063FAFA218900FFF75CFEFEF744
:104140009CFE002221000020C043FEF784FE0020D8
:1041500010BD12480168491C016070470F48006893
:10416000704711B581B0FFF7F9FF0400FFF7F6FFC4
:10417000001B01998842F9D313BD094806E008489D
:10418000FFE7016802220A430260704701680222C9
:10419000914301607047000000200240A0140020FD
:1041A00010E000E080B5224801F0F6FB24A001F009
:1041B00053FC01BDF8B50026002401271D4D686899
:1041C000002806D12868C0B201F05EFC01F088FC2E
:1041D0006F6001F098FC002809D1002200212868B6
:1041E000C0B201F0C5FC2868401C28606E602868D9
:1041F00000281BD02E606E6028000C3001F0F6FB0A
:1042000028000C3001F054FD29000831642001F031
:1042100051FD002809D10C35280001F047FE002887
:1042200001D1022402E0032400E001242000F2BDB9
:10423000780D00206C0D00207047704700000000D2
:10424000A87E0008CC7E0008241400200300000093
:10425000440200000700000080B5002000F082F852
:10426000012000F07FF80121002000F0B3F8FFF7F3
:1042700019FE00F001F801BD80B518481849016029
:104280000021816280225205426012098260102260
:104290000262C162A022C261D2018261C1607F223A
:1042A0000261416141629122920002635200826385
:1042B000416300F021FEFFF775FF01BD10B5094C09
:1042C000002209492000FEF7F7FD08492000FEF70B
:1042D00023FE2000FEF72AFE10BD0000E41300209C
:1042E00000400240240E0020880D0020D00C002049
:1042F00038B5002100220023174C2468A478042537
:10430000ED43402C01DA2A0008E0802C01DA052276
:1043100004E0C02C01DA2B0000E00523017042709C
:104320008370C17031BD10B50B48006800780A2851
:1043300001D004280ED1094C2000FFF7D9FF607886
:10434000002802D1A078002804D0042221000448CB
:1043500001F064FE10BD0000887F0008A814002052
:10436000240E002030B585B0012102229D4B00288B
:104370001C6801D1144300E00C431C60430000BFE3
:10438000A1A4E55A009501910291039280009649FB
:104390000C1869462068FEF70BFC002229002068F3
:1043A000FEF719FD05B030BD80B50022410000BF09
:1043B00095A3595A80008C4B1858FEF70CFD01BD8F
:1043C00080B5410090A2515A8000874A1058FEF7EC
:1043D00008FD01BDF0B585B00C0082490A680123D3
:1043E00013430B600600B00080490F180025002C15
:1043F0000BD1700085A1085A00900195022002900F
:10440000039069463868FEF7D3FB012C14D1700085
:104410007EA1085A00900295754801906946386857
:10442000FEF7C6FB7AA0845D0022032160B2FEF78E
:1044300012FD60B2FEF713FD05B0F0BDF0B585B01A
:104440006C4C200001F01CFF002832D16A4820602B
:104450008220400060600025A5601020E061E560DA
:10446000012060610226266125624102A161A562E8
:104470000721E16265625B4F396831433960082189
:1044800000910196029003200390049569465B48D1
:10449000FEF78EFB2020009004950296694657484F
:1044A000FEF786FBB868F1020143B960200001F015
:1044B000DFFD05B0F0BD01B580235B010122694637
:1044C0004C4801F030FE002801D000F001F801BD99
:1044D00080B5484801F00DFEFFF7B0FF01BDF0B513
:1044E00085B001203F490A6802430A6002240A6835
:1044F00022430A600A6822430A600A6802430A608B
:104500000A6822430A60C1030091019000250295C8
:1045100003200390A027FF0569463800FEF748FBFB
:10452000A0020090354E69463000FEF741FB0420A2
:10453000009069463000FEF73BFB60020090694640
:104540003000FEF735FBE0010090019502946946CA
:104550003800FEF72DFB002261023000FEF73BFC25
:104560000022A1033800FEF736FC0122D1033800F7
:10457000FEF731FC012204213000FEF72CFC0A205A
:10458000FFF7EFFDFFF75AFF05B0F0BD70B506006D
:10459000A025ED0580242402002221002800FEF73A
:1045A0001AFC0122D1021548FEF715FCF0B210E00A
:1045B00070B50600A025ED0580242402002221000C
:1045C0002800FEF708FC002221090C48FEF703FC36
:1045D0003000FFF770FF012221002800FEF7FBFBEF
:1045E00070BD00002C100240100E0020200E002094
:1045F0000000211090130020003001400004005002
:1046000080B5FFF7AEFD01BD1000200001000000E5
:104610000500FEE7FEB500F039FC674C80202070F5
:10462000664F0297012001900094012340228421CB
:104630002000183001F0F4FE002800D0FEE76420CE
:10464000FFF78FFD0325257002970120019000944C
:104650000123412284212000183001F0E1FE0028CE
:1046600000D0FEE70120FFF77CFD062020700297B6
:10467000012001900094012342228421200018305F
:1046800001F0CEFE002800D0FEE704202070029743
:104690000120019000940123402284212000183041
:1046A00001F0BEFE002800D0FEE72570E820607013
:1046B0000025A5701820E070022626716C2060711C
:1046C000E58027202072102060721320A0727E20C7
:1046D000E0720B202073B820607302970E200190C7
:1046E00000940123822284212000183001F098FEDA
:1046F000002800D0FEE7012060650020FFF754FE8F
:104700000120FFF751FE092020700297012001903F
:1047100000940123802284212000183001F080FEC3
:10472000002800D0FEE76420FFF71BFDA582A575D9
:10473000656502970320019020001430009001234A
:10474000142284212000183001F0E7FE002800D058
:10475000FEE7267002970120019000940123442275
:1047600084212000183001F05BFE002800D0FEE715
:104770000120FFF7F6FC207D0004617D090240184E
:10478000A17D45180A20454325658E4E280031003D
:10479000FFF72EFB0800FA218900FFF729FB07002D
:1047A00028003100FFF724FB02003B008BA15834A6
:1047B000200002F029F8F7BDC012002010270000E9
:1047C000F0B589B000F062FB7F4C802020707F4FF5
:1047D00002970120019000940123402284212000AF
:1047E000183001F01DFE002800D0FEE76420FFF71E
:1047F000B8FC032525700297012001900094012345
:10480000412284212000183001F00AFE002800D047
:10481000FEE70120FFF7A5FC06202070029701208B
:10482000019000940123422284212000183001F0DD
:10483000F7FD002800D0FEE7042020700297012039
:10484000019000940123402284212000183001F0BF
:10485000E7FD002800D0FEE72570E8206070002505
:10486000A5701820E070022626716C206071E5802A
:1048700027202072102060721320A0727E20E07228
:104880000B202073B820607302970E2001900094D3
:104890000123822284212000183001F0C1FD00286C
:1048A00000D0FEE7092020700297012001900094BB
:1048B0000123802284212000183001F0B1FD00285E
:1048C00000D0FEE7FF2020700297012001900094A5
:1048D0000123812284212000183001F0A1FD00284D
:1048E00000D0FEE7FEF7D8FE2000183001F079FD79
:1048F0003748016804220A4302603003039005969A
:1049000006963448049003A93348FEF751F9002273
:1049100003210720FEF79FFA0720FEF7A0FAFFF712
:104920002CFC0121002001F08BFFFFF728FCFEF793
:1049300048FF00F0ABFAA582A5750297032001900D
:10494000200014300090012314228421200018300C
:1049500001F0E3FD002800D0FEE726700297012059
:10496000019000940123442284212000183001F09A
:1049700057FD002800D0FEE70120FFF7F2FB207D65
:104980000004617D09024018A17D45180A204543B5
:1049900025650C4E28003100FFF72AFA0800FA219D
:1049A0008900FFF725FA070028003100FFF720FAF9
:1049B00002003B0009A15834200001F025FF09B096
:1049C000F0BD000040420F00C01200201027000080
:1049D0002C100240000031100008005025642C25E6
:1049E0002E33646D41000000F0B59BB0FEF754FE1D
:1049F000A448006802218843A249086000F046FAF2
:104A0000A14C80202070A1480290012001900094C8
:104A10000123402284212000183001F001FD0028EC
:104A200000D0FEE76420FFF79CFB03252570974824
:104A30000290012001900094012341228421200052
:104A4000183001F0EDFC002800D0FEE70120FFF750
:104A500088FB062020708D48029001200190009470
:104A60000123422284212000183001F0D9FC0028C3
:104A700000D0FEE7042020708448029001200190BD
:104A800000940123402284212000183001F0C8FC4A
:104A9000002800D0FEE72570E82060700025A57092
:104AA0001820E070022727716C206071E5802720B4
:104AB0002072102666721320A0727E20E0720B20F6
:104AC0002073B8206073714802900E20019000940A
:104AD0000123822284212000183001F0A1FC00284B
:104AE00000D0FEE7FF20207068480290012001906E
:104AF00000940123812284212000183001F090FCD1
:104B0000002800D0FEE709202070604802900120B4
:104B1000019000940123802284212000183001F0AC
:104B20007FFC002800D0FEE7594800685949014041
:104B300030020843564908600D9601201490A020C9
:104B400000021690159517950DA800F043FA00285D
:104B500000D0FEE70F200390049580200590069575
:104B60000795002103A800F011FC002800D0FEE703
:104B70000D9710950DA800F02DFA002800D0FEE743
:104B8000C04E3068C0490140316001F08FFE01F035
:104B900087FE3C480068082101433A480160200034
:104BA000183001F01EFCB06A04210143B1623803E1
:104BB00008900A970B97C348099008A9C248FDF7C7
:104BC000F7FF002203210720FEF745F90720FEF733
:104BD00046F9FFF7D2FA2E480068042101432C4819
:104BE00001600121012001F02BFEFFF7C8FAFEF75A
:104BF0004BFEFEF7E6FD00F049F9A582A5752348B6
:104C00000290032001902000143000900123142210
:104C100084212000183001F080FC002800D0FEE73D
:104C200027701A4802900120019000940123442229
:104C300084212000183001F0F3FB002800D0FEE7AB
:104C40000120FFF78EFA207D0004617D09024018E3
:104C5000A17D45180A2045432565FA26B60028009F
:104C60003100FFF7C5F80F0028003100FFF7C0F84A
:104C700002003B009BA15834200001F0C5FD1BB091
:104C8000F0BD000000200240C012002010270000EC
:104C900000700040FFE7FFFFF0B589B000F0F6F8C4
:104CA0008A4C802020708A4F029701200190009446
:104CB0000123402284212000183001F0B1FB00289C
:104CC00000D0FEE76420FFF74CFA03252570029719
:104CD00001200190009401234122842120001830FA
:104CE00001F09EFB002800D0FEE70120FFF739FA13
:104CF0000620207002970120019000940123422297
:104D000084212000183001F08BFB002800D0FEE742
:104D1000042020700297012001900094012340227A
:104D200084212000183001F07BFB002800D0FEE732
:104D30002570E82060700025A5701820E07002261C
:104D400026716C206071E58027202072102060722F
:104D50001320A0727E20E0720B202073B8206073B5
:104D600002970E20019000940123822284212000CA
:104D7000183001F055FB002800D0FEE7FF2020701E
:104D800002970120019000940123812284212000B8
:104D9000183001F045FB002800D0FEE70920207004
:104DA0000297012001900094012380228421200099
:104DB000183001F035FB002800D0FEE7FEF76CFC50
:104DC0002000183001F00DFB4248016804220A431C
:104DD000026030030390059606963A48049003A9B2
:104DE0003948FDF7E5FE002203210720FEF733F8DE
:104DF0000720FEF734F801F059FD01F051FD364867
:104E0000016804220A4302600121012001F02CFD07
:104E1000FEF7D7FC00F03AF8A582A57502970320AB
:104E200001902000143000900123142284212000DE
:104E3000183001F072FB002800D0FEE726700297C0
:104E40000120019000940123442284212000183085
:104E500001F0E6FA002800D0FEE70120FFF781F913
:104E6000207D0004617D09024018A17D42180A20BE
:104E7000424322651EA15834200001F0C5FC09B050
:104E8000F0BD000004100240FF1FFFFF10B50F4CE3
:104E90002000183001F0A5FA1048A06101206062DE
:104EA0000F48E0610020A06220636063A06320627D
:104EB000E0621834200001F045FA002800D0FEE737
:104EC00010BD00000000311000080050C01200208A
:104ED000102700002C1002400070004000540040D9
:104EE0002E11B10025642C252E336475410000007D
:104EF00025646E410000000038B5040001D1012096
:104F000032BD02203C216054200000F08EFC0125BF
:104F100020680560206801686268A36813432269FD
:104F200052041A4363691343A2691A43E3691343A2
:104F3000226A1A43636A1343A26A1A430A4302604D
:104F4000E068012804D1206801682A040A4302604D
:104F5000206B616B0143A06B0843C1432068016172
:104F6000206B616B014320688162A06B216808623D
:104F7000206B00F01EF82168086320684168032256
:104F800091434160206881680A4382603C34257007
:104F9000002032BD10B5002801D1012010BD040051
:104FA0003C340221217000F075FC002020706070FC
:104FB00010BD10B50100002000220F239400A34073
:104FC0000B4003D00300012090401843521C082AD4
:104FD000F3D310BDF8B50400A34D2078C00716D553
:104FE0008027BF02E8680C210140082907D0E86843
:104FF0000C2101400C295DD1E868C0035AD528680E
:10500000074004D060688021490288422AD10427E1
:105010002078800719D5E8680C210140042907D0C1
:10502000E8680C2101400C297AD1E868C00377D4E4
:105030002868384002D0E068012813D16868B34975
:10504000014020690002084368602078C00618D536
:10505000E8680C21014000D088E02868800503D56D
:10506000E069012800D07EE16868A9490140606AD2
:105070000843686068680002000A216A0906014363
:1050800069602078000700D4A3E060690028286DDB
:1050900000D18FE0012101432965FFF75FF8060089
:1050A000286D800700D594E0FFF758F8801B65282D
:1050B000F6D356E12868AE4901402960FFF74EF863
:1050C00006002868384006D0FFF748F8801BA94939
:1050D0008842F6D345E12868A54901406068084345
:1050E00028606068790888420CD1FFF737F806001D
:1050F000286838408BD1FFF731F8801B9D498842E2
:10510000F6D32EE1FFF72AF806002868384000D1D0
:105110007DE7FFF723F8801B96498842F5D320E10D
:10512000E0680921C943002810D02A6811400843CB
:105130002860FFF713F806002868384000D07DE7A4
:10514000FFF70CF8801B6528F6D30AE128680140B8
:105150002960FFF703F806002868384000D174E79B
:10516000FEF7FCFF801B6528F6D3FAE0E069002813
:1051700028680FD0A90D01432960FEF7EFFF060054
:105180002868800500D56FE7FEF7E8FF801B6528DB
:10519000F6D3E6E0784901402960FEF7DFFF06001C
:1051A0002868800500D46CE7FEF7D8FF801B6528CF
:1051B000F6D3D6E0012188432865FEF7CFFF06002D
:1051C000286D800705D5FEF7C9FF801B6528F7D33A
:1051D000C7E0207880062ED56848A1690029A96813
:1051E00016D001220A43AA60696B01220A436A634E
:1051F00001686A0C0A430260FEF7B0FF0600A86867
:10520000800718D4FEF7AAFF801B6528F7D3A8E013
:1052100001229143A9600168594A0A400260FEF7E1
:105220009DFF0600A868800705D5FEF797FF801B45
:105230006528F7D395E0206807404BD0A86B802104
:1052400049050143A9634F4F3868A90D01433960EF
:10525000FEF784FF06003868C00507D4FEF77EFF1E
:10526000801B6428F7D37CE000100240464F286D75
:1052700038402865FEF772FF0600286D800506D5C8
:10528000FEF76CFF801B3B498842F6D369E0286D2E
:105290000740A06838432865A068A90D88420CD152
:1052A000FEF75CFF0600286D800513D4FEF756FF5D
:1052B000801B30498842F6D353E0FEF74FFF0600CB
:1052C000286D800506D5FEF749FF801B29498842D5
:1052D000F6D346E0A06A002847D0E9680C220A40CD
:1052E0000C2A40D08027BF04A749022828682BD168
:1052F00001402960FEF732FF06002868384009D0D7
:10530000FEF72CFF801B6528F7D32AE0FFE0FFFFA4
:10531000FF1FFFFFE8689D490140206B0843616B58
:105320000143E06A0843E86028687908014329607E
:10533000FEF714FF06002868384016D1FEF70EFF6E
:10534000801B6528F7D30CE001402960FEF706FFBB
:1053500006002868384008D0FEF700FF801B65284B
:10536000F7D30320F2BD0120F2BD0020F2BD000002
:10537000FFFFFAFF89130000FFFEFFFF200001403E
:10538000FEDFFFFF00700040FFFAFFFFF3B581B0C2
:105390000C27974C0320C043964DF021C9430222AD
:1053A000954B1E68F307DB0F029EB34266D2924B09
:1053B0001B680126B343029E1E438F4B1E601E686E
:1053C000F307DB0F029EB3421FD1019B1B681A40FB
:1053D00005D0EA681140019A92680A43EA6001998F
:1053E0000978C90700D4B2E001994968022902D1BD
:1053F0002A68920308E0002902D12A68920503E096
:1054000003292A6802D1920102D49EE05207FCD5FA
:10541000EA6810400143E960FEF7A0FE060001982B
:105420004068022809D1E8683840082815D0FEF7FE
:1054300095FE801BA042F6D377E0032809D1E868E7
:1054400038400C2809D0FEF789FE801BA042F6D315
:105450006BE0002808D1E868384078D0FEF77EFE7F
:10546000801BA042F7D360E0E868384004286ED083
:10547000FEF774FE801BA042F6D356E0019B1B682A
:105480001A4005D0EA681140019A92680A43EA601E
:1054900001990978C9074AD501994968022902D1B9
:1054A0002A68920308E0002902D12A68920503E0E5
:1054B00003292A6802D1920102D446E0520744D55A
:1054C000EA6810400143E960FEF748FE06000198D3
:1054D0004068022809D1E8683840082827D0FEF73C
:1054E0003DFE801BA042F6D31FE0032809D1E868E7
:1054F00038400C281BD0FEF731FE801BA042F6D3AB
:1055000013E0002808D1E868384010D0FEF726FEE6
:10551000801BA042F7D308E0E8683840042806D092
:10552000FEF71CFE801BA042F6D30320FEBD3248CE
:10553000006801218843029901432F4801600068F7
:10554000C107C90F0298814201D00120FEBD019818
:105550000078400706D5E8682F4901400198C068E7
:105560000843E86001980078000707D5E8682B49F0
:10557000014001980069C0000843E8600320FEF77D
:10558000D6FD0020FEBD0000FFFFFFFEFFFF02FF73
:1055900030B5184C616823484300E2680C2515407B
:1055A000042D04D0082D21D00C2D07D019E020683F
:1055B000C00601D5980830BD180030BDE268E1682A
:1055C0009202120F184DAA5C0902890F491CE46867
:1055D000E40301D45A4300E042431000FEF70BFC01
:1055E00030BD0804400F800012A1085830BD0000F3
:1055F00089130000001002400020024080B5FFF730
:10560000C7FF074909680906090F084A515CC840E5
:105610000749086002BD0000FFF8FFFFFFC7FFFF5A
:105620000C10024000127A00F80D0020D80D002066
:10563000680D002000FA000000F4010000E80300FB
:1056400000D0070040420F0080841E0000093D008A
:10565000F8B50400644D2078C00705D5E86C032137
:10566000884361680143E9642078800705D5E86CC8
:105670000C218843A1680143E9642078400705D5DF
:10568000E86C5A490140E0680843E8642078000764
:1056900005D5E86C5649014020690843E864207844
:1056A000800652D5A86B802149050143A963514F5B
:1056B0003868A90D01433960FEF750FD06003868CF
:1056C000C00505D4FEF74AFD801B6528F7D325E009
:1056D000494F286DF94301406069FA430240914205
:1056E0000BD0286D296D802212030A432A65296D8B
:1056F000424A0A402A65384028656069802149028B
:1057000088420DD1FEF72AFD0600286D800507D4DA
:10571000FEF724FD801B3A498842F6D30320F2BDF0
:1057200061693848FA430A40FB439A4205D12A6826
:10573000104039400143296002E029680840286090
:10574000286D07406069384328652078400605D5F4
:10575000E86C2D490140A0690843E8642078000600
:1057600005D5E86C29490140E0690843E864002058
:10577000F2BD27490A6880231B0513430B600A68A2
:10578000244B13400B6024494A68244B13404B6060
:105790004A68036813434B604A68436813434B608D
:1057A0004A68836813434B604A68120E12064A60C7
:1057B0004A68C36813434B604A6803691B04134378
:1057C0004B600A68164B13400B600A684069000280
:1057D000104308600868402202430A6008682022DB
:1057E00002430A607047000000100240FFF3FFFF11
:1057F000FFCFFFFF00700040FFFFFCFFFFFFF7FF40
:1058000089130000FFFFCFFFFFFFFFFBFFFFF3FF48
:1058100028100240FFFFFFF7006C0040FFFFFF4829
:10582000FFC0FFFF7047FEE77047F0B585B05448F2
:105830004168802252020A434260012701683943CD
:1058400001600224016821430160122001900025BB
:105850000295039503260496882000906946A020AF
:10586000C005FDF7A5F9009469464648FDF7A0F983
:105870000194029503950496442000906946A02067
:10588000C005FDF795F9009769463E48FDF790F988
:1058900005B0F0BD10B53C480168802252020A43B1
:1058A00002603A4902680A400260026911400161DF
:1058B000A024E40504212000FDF738FA0821200087
:1058C000FDF734FA10212000FDF730FA40212000C6
:1058D000FDF72CFA80212000FDF728FA294C012140
:1058E0002000FDF723FA02212000FDF71FFA10BD6A
:1058F00030B585B0022022490A6802430A600A686E
:1059000002430A60CA6803051343CB60C1010091DA
:105910001221019101210291039004240494194D54
:1059200069462800FDF744F9E001009004946946B7
:105930002800FDF73DF9002201211720FDF78BFA21
:105940001720FDF78CFA05B030BD10B5104801687E
:10595000802292030A43026001680E4A0A400260F4
:10596000084C810D2000FDF7E1F98021890020001D
:10597000FDF7DCF91720FDF779FA10BD00000000F3
:105980002C1002400004005020100240FFFFFEFFD8
:1059900028100240FFFFDFFFF8B5070000260024B3
:1059A0003D683E721CE0280000F04AF82878202864
:1059B00001D0222812D127484069006A0068804738
:1059C0002448406901684A685306DB0F01D0012270
:1059D0003A720978C900C069405C04430835761CF6
:1059E000F0B2B9888842DED3FC80F1BDF8B507007B
:1059F000002600243D683E721CE0280000F020F8DC
:105A00002878202801D0222812D112484069006A43
:105A1000406880470F48406901684A685306DB0FB9
:105A200001D001223A720978C900C069405C044380
:105A30000835761CF0B2B9888842DED3FC80F1BD0F
:105A40000449C8600278203A032A01D840684861B6
:105A5000704700006014002010B5084C60600848D2
:105A600000680849FEF7C7F9FA2189004843482130
:105A7000FEF7C1F92061002010BD00BF60140020B6
:105A8000680D002040420F00F0B5002801D0022030
:105A9000F0BD294C60680168426800232372274CDE
:105AA000056925604569A56015E015880C266E43DB
:105AB0008568AD59ED06AD0F032D09D0A6688F6836
:105AC000BE43A660002D03D125684E68B54325600E
:105AD0000C31921C5B1C8589AB42E6D30020F0BDE3
